{"abi":[{"type":"constructor","inputs":[{"name":"_merkle","type":"bytes32","internalType":"bytes32"},{"name":"_erc","type":"address","internalType":"contract IERC20"}],"stateMutability":"nonpayable"},{"type":"function","name":"CCC3","inputs":[],"outputs":[{"name":"","type":"address","internalType":"contract IERC20"}],"stateMutability":"view"},{"type":"function","name":"Claim","inputs":[{"name":"account","type":"address","internalType":"address"},{"name":"amount","type":"uint256","internalType":"uint256"},{"name":"merkleProof","type":"bytes32[]","internalType":"bytes32[]"}],"outputs":[],"stateMutability":"nonpayable"},{"type":"function","name":"getAirDropTokenAddress","inputs":[],"outputs":[{"name":"","type":"address","internalType":"contract IERC20"}],"stateMutability":"view"},{"type":"function","name":"getClaimState","inputs":[{"name":"account","type":"address","internalType":"address"}],"outputs":[{"name":"","type":"bool","internalType":"bool"}],"stateMutability":"view"},{"type":"function","name":"getMerkleRoot","inputs":[],"outputs":[{"name":"","type":"bytes32","internalType":"bytes32"}],"stateMutability":"view"},{"type":"function","name":"hasClaimed","inputs":[{"name":"","type":"address","internalType":"address"}],"outputs":[{"name":"","type":"bool","internalType":"bool"}],"stateMutability":"view"},{"type":"event","name":"CCC3AirDrop_Claimed","inputs":[{"name":"account","type":"address","indexed":false,"internalType":"address"},{"name":"amount","type":"uint256","indexed":false,"internalType":"uint256"}],"anonymous":false},{"type":"error","name":"CCC3AirDrop_AlreadyClaimed","inputs":[]},{"type":"error","name":"CCC3AirDrop_InvaildAmount","inputs":[]},{"type":"error","name":"CCC3AirDrop_InvaildProof","inputs":[]},{"type":"error","name":"SafeERC20FailedOperation","inputs":[{"name":"token","type":"address","internalType":"address"}]}],"bytecode":{"object":"0x60c060405234801561000f575f5ffd5b50604051610c3a380380610c3a83398181016040528101906100319190610116565b8073ffffffffffffffffffffffffffffffffffffffff1660808173ffffffffffffffffffffffffffffffffffffffff16815250508160a081815250505050610154565b5f5ffd5b5f819050919050565b61008a81610078565b8114610094575f5ffd5b50565b5f815190506100a581610081565b92915050565b5f73ffffffffffffffffffffffffffffffffffffffff82169050919050565b5f6100d4826100ab565b9050919050565b5f6100e5826100ca565b9050919050565b6100f5816100db565b81146100ff575f5ffd5b50565b5f81519050610110816100ec565b92915050565b5f5f6040838503121561012c5761012b610074565b5b5f61013985828601610097565b925050602061014a85828601610102565b9150509250929050565b60805160a051610aa96101915f395f818161037801526104b501525f818161013d015281816101630152818161019101526104130152610aa95ff3fe608060405234801561000f575f5ffd5b5060043610610060575f3560e01c8063127954761461006457806333af8f031461008257806337065ce4146100a057806349590657146100bc57806373b2e80e146100da578063e767170c1461010a575b5f5ffd5b61006c61013a565b604051610079919061077f565b60405180910390f35b61008a610161565b604051610097919061077f565b60405180910390f35b6100ba60048036038101906100b5919061086f565b610185565b005b6100c46104b2565b6040516100d191906108f8565b60405180910390f35b6100f460048036038101906100ef9190610911565b6104d9565b6040516101019190610956565b60405180910390f35b610124600480360381019061011f9190610911565b6104f5565b6040516101319190610956565b60405180910390f35b5f7f0000000000000000000000000000000000000000000000000000000000000000905090565b7f000000000000000000000000000000000000000000000000000000000000000081565b5f8314806102295750827f000000000000000000000000000000000000000000000000000000000000000073ffffffffffffffffffffffffffffffffffffffff166370a08231306040518263ffffffff1660e01b81526004016101e8919061097e565b602060405180830381865afa158015610203573d5f5f3e3d5ffd5b505050506040513d601f19601f8201168201806040525081019061022791906109ab565b105b15610260576040517f4067577900000000000000000000000000000000000000000000000000000000815260040160405180910390fd5b5f5f8573ffffffffffffffffffffffffffffffffffffffff1673ffffffffffffffffffffffffffffffffffffffff1681526020019081526020015f205f9054906101000a900460ff16156102e0576040517f96142fbc00000000000000000000000000000000000000000000000000000000815260040160405180910390fd5b5f84846040516020016102f49291906109e5565b6040516020818303038152906040528051906020012060405160200161031a9190610a2c565b60405160208183030381529060405280519060200120905061039d8383808060200260200160405190810160405280939291908181526020018383602002808284375f81840152601f19601f820116905080830192505050505050507f000000000000000000000000000000000000000000000000000000000000000083610546565b6103d3576040517f7595baed00000000000000000000000000000000000000000000000000000000815260040160405180910390fd5b7f3920eb13cc36f49144ed1d7c5c3968e2688c6b7e5412961e38bcd397492d4bca85856040516104049291906109e5565b60405180910390a161045785857f000000000000000000000000000000000000000000000000000000000000000073ffffffffffffffffffffffffffffffffffffffff1661055c9092919063ffffffff16565b60015f5f8773ffffffffffffffffffffffffffffffffffffffff1673ffffffffffffffffffffffffffffffffffffffff1681526020019081526020015f205f6101000a81548160ff0219169083151502179055505050505050565b5f7f0000000000000000000000000000000000000000000000000000000000000000905090565b5f602052805f5260405f205f915054906101000a900460ff1681565b5f5f5f8373ffffffffffffffffffffffffffffffffffffffff1673ffffffffffffffffffffffffffffffffffffffff1681526020019081526020015f205f9054906101000a900460ff169050919050565b5f8261055285846105db565b1490509392505050565b6105d6838473ffffffffffffffffffffffffffffffffffffffff1663a9059cbb858560405160240161058f9291906109e5565b604051602081830303815290604052915060e01b6020820180517bffffffffffffffffffffffffffffffffffffffffffffffffffffffff838183161783525050505061062c565b505050565b5f5f8290505f5f90505b8451811015610621576106128286838151811061060557610604610a46565b5b60200260200101516106c7565b915080806001019150506105e5565b508091505092915050565b5f5f60205f8451602086015f885af18061064b576040513d5f823e3d81fd5b3d92505f519150505f821461066457600181141561067f565b5f8473ffffffffffffffffffffffffffffffffffffffff163b145b156106c157836040517f5274afe70000000000000000000000000000000000000000000000000000000081526004016106b8919061097e565b60405180910390fd5b50505050565b5f8183106106de576106d982846106f1565b6106e9565b6106e883836106f1565b5b905092915050565b5f825f528160205260405f20905092915050565b5f73ffffffffffffffffffffffffffffffffffffffff82169050919050565b5f819050919050565b5f61074761074261073d84610705565b610724565b610705565b9050919050565b5f6107588261072d565b9050919050565b5f6107698261074e565b9050919050565b6107798161075f565b82525050565b5f6020820190506107925f830184610770565b92915050565b5f5ffd5b5f5ffd5b5f6107aa82610705565b9050919050565b6107ba816107a0565b81146107c4575f5ffd5b50565b5f813590506107d5816107b1565b92915050565b5f819050919050565b6107ed816107db565b81146107f7575f5ffd5b50565b5f81359050610808816107e4565b92915050565b5f5ffd5b5f5ffd5b5f5ffd5b5f5f83601f84011261082f5761082e61080e565b5b8235905067ffffffffffffffff81111561084c5761084b610812565b5b60208301915083602082028301111561086857610867610816565b5b9250929050565b5f5f5f5f6060858703121561088757610886610798565b5b5f610894878288016107c7565b94505060206108a5878288016107fa565b935050604085013567ffffffffffffffff8111156108c6576108c561079c565b5b6108d28782880161081a565b925092505092959194509250565b5f819050919050565b6108f2816108e0565b82525050565b5f60208201905061090b5f8301846108e9565b92915050565b5f6020828403121561092657610925610798565b5b5f610933848285016107c7565b91505092915050565b5f8115159050919050565b6109508161093c565b82525050565b5f6020820190506109695f830184610947565b92915050565b610978816107a0565b82525050565b5f6020820190506109915f83018461096f565b92915050565b5f815190506109a5816107e4565b92915050565b5f602082840312156109c0576109bf610798565b5b5f6109cd84828501610997565b91505092915050565b6109df816107db565b82525050565b5f6040820190506109f85f83018561096f565b610a0560208301846109d6565b9392505050565b5f819050919050565b610a26610a21826108e0565b610a0c565b82525050565b5f610a378284610a15565b60208201915081905092915050565b7f4e487b71000000000000000000000000000000000000000000000000000000005f52603260045260245ffdfea2646970667358221220b28631f1c6b75148ec5a8d382f84e21050e50ae11026189d6f817636e962da1764736f6c634300081c0033","linkReferences":{}},"methodIdentifiers":{"CCC3()":"33af8f03","Claim(address,uint256,bytes32[])":"37065ce4","getAirDropTokenAddress()":"12795476","getClaimState(address)":"e767170c","getMerkleRoot()":"49590657","hasClaimed(address)":"73b2e80e"},"id":14}