{"abi":[{"type":"constructor","inputs":[{"name":"initialOwner","type":"address","internalType":"address"}],"stateMutability":"nonpayable"},{"type":"function","name":"Burn","inputs":[{"name":"_amount","type":"uint256","internalType":"uint256"}],"outputs":[],"stateMutability":"nonpayable"},{"type":"function","name":"Mint","inputs":[{"name":"_amount","type":"uint256","internalType":"uint256"}],"outputs":[],"stateMutability":"nonpayable"},{"type":"function","name":"allowance","inputs":[{"name":"owner","type":"address","internalType":"address"},{"name":"spender","type":"address","internalType":"address"}],"outputs":[{"name":"","type":"uint256","internalType":"uint256"}],"stateMutability":"view"},{"type":"function","name":"approve","inputs":[{"name":"spender","type":"address","internalType":"address"},{"name":"value","type":"uint256","internalType":"uint256"}],"outputs":[{"name":"","type":"bool","internalType":"bool"}],"stateMutability":"nonpayable"},{"type":"function","name":"balanceOf","inputs":[{"name":"account","type":"address","internalType":"address"}],"outputs":[{"name":"","type":"uint256","internalType":"uint256"}],"stateMutability":"view"},{"type":"function","name":"decimals","inputs":[],"outputs":[{"name":"","type":"uint8","internalType":"uint8"}],"stateMutability":"view"},{"type":"function","name":"name","inputs":[],"outputs":[{"name":"","type":"string","internalType":"string"}],"stateMutability":"view"},{"type":"function","name":"owner","inputs":[],"outputs":[{"name":"","type":"address","internalType":"address"}],"stateMutability":"view"},{"type":"function","name":"renounceOwnership","inputs":[],"outputs":[],"stateMutability":"nonpayable"},{"type":"function","name":"symbol","inputs":[],"outputs":[{"name":"","type":"string","internalType":"string"}],"stateMutability":"view"},{"type":"function","name":"totalSupply","inputs":[],"outputs":[{"name":"","type":"uint256","internalType":"uint256"}],"stateMutability":"view"},{"type":"function","name":"transfer","inputs":[{"name":"to","type":"address","internalType":"address"},{"name":"value","type":"uint256","internalType":"uint256"}],"outputs":[{"name":"","type":"bool","internalType":"bool"}],"stateMutability":"nonpayable"},{"type":"function","name":"transferFrom","inputs":[{"name":"from","type":"address","internalType":"address"},{"name":"to","type":"address","internalType":"address"},{"name":"value","type":"uint256","internalType":"uint256"}],"outputs":[{"name":"","type":"bool","internalType":"bool"}],"stateMutability":"nonpayable"},{"type":"function","name":"transferOwnership","inputs":[{"name":"newOwner","type":"address","internalType":"address"}],"outputs":[],"stateMutability":"nonpayable"},{"type":"event","name":"Approval","inputs":[{"name":"owner","type":"address","indexed":true,"internalType":"address"},{"name":"spender","type":"address","indexed":true,"internalType":"address"},{"name":"value","type":"uint256","indexed":false,"internalType":"uint256"}],"anonymous":false},{"type":"event","name":"OwnershipTransferred","inputs":[{"name":"previousOwner","type":"address","indexed":true,"internalType":"address"},{"name":"newOwner","type":"address","indexed":true,"internalType":"address"}],"anonymous":false},{"type":"event","name":"Transfer","inputs":[{"name":"from","type":"address","indexed":true,"internalType":"address"},{"name":"to","type":"address","indexed":true,"internalType":"address"},{"name":"value","type":"uint256","indexed":false,"internalType":"uint256"}],"anonymous":false},{"type":"error","name":"ERC20InsufficientAllowance","inputs":[{"name":"spender","type":"address","internalType":"address"},{"name":"allowance","type":"uint256","internalType":"uint256"},{"name":"needed","type":"uint256","internalType":"uint256"}]},{"type":"error","name":"ERC20InsufficientBalance","inputs":[{"name":"sender","type":"address","internalType":"address"},{"name":"balance","type":"uint256","internalType":"uint256"},{"name":"needed","type":"uint256","internalType":"uint256"}]},{"type":"error","name":"ERC20InvalidApprover","inputs":[{"name":"approver","type":"address","internalType":"address"}]},{"type":"error","name":"ERC20InvalidReceiver","inputs":[{"name":"receiver","type":"address","internalType":"address"}]},{"type":"error","name":"ERC20InvalidSender","inputs":[{"name":"sender","type":"address","internalType":"address"}]},{"type":"error","name":"ERC20InvalidSpender","inputs":[{"name":"spender","type":"address","internalType":"address"}]},{"type":"error","name":"OwnableInvalidOwner","inputs":[{"name":"owner","type":"address","internalType":"address"}]},{"type":"error","name":"OwnableUnauthorizedAccount","inputs":[{"name":"account","type":"address","internalType":"address"}]}],"bytecode":{"object":"0x608060405234801561000f575f5ffd5b506040516117d43803806117d483398181016040528101906100319190610267565b806040518060400160405280600481526020017f43434333000000000000000000000000000000000000000000000000000000008152506040518060400160405280600281526020017f433300000000000000000000000000000000000000000000000000000000000081525081600390816100ad91906104cf565b5080600490816100bd91906104cf565b5050505f73ffffffffffffffffffffffffffffffffffffffff168173ffffffffffffffffffffffffffffffffffffffff1603610130575f6040517f1e4fbdf700000000000000000000000000000000000000000000000000000000815260040161012791906105ad565b60405180910390fd5b61013f8161014660201b60201c565b50506105c6565b5f60055f9054906101000a900473ffffffffffffffffffffffffffffffffffffffff1690508160055f6101000a81548173ffffffffffffffffffffffffffffffffffffffff021916908373ffffffffffffffffffffffffffffffffffffffff1602179055508173ffffffffffffffffffffffffffffffffffffffff168173ffffffffffffffffffffffffffffffffffffffff167f8be0079c531659141344cd1fd0a4f28419497f9722a3daafe3b4186f6b6457e060405160405180910390a35050565b5f5ffd5b5f73ffffffffffffffffffffffffffffffffffffffff82169050919050565b5f6102368261020d565b9050919050565b6102468161022c565b8114610250575f5ffd5b50565b5f815190506102618161023d565b92915050565b5f6020828403121561027c5761027b610209565b5b5f61028984828501610253565b91505092915050565b5f81519050919050565b7f4e487b71000000000000000000000000000000000000000000000000000000005f52604160045260245ffd5b7f4e487b71000000000000000000000000000000000000000000000000000000005f52602260045260245ffd5b5f600282049050600182168061030d57607f821691505b6020821081036103205761031f6102c9565b5b50919050565b5f819050815f5260205f209050919050565b5f6020601f8301049050919050565b5f82821b905092915050565b5f600883026103827fffffffffffffffffffffffffffffffffffffffffffffffffffffffffffffffff82610347565b61038c8683610347565b95508019841693508086168417925050509392505050565b5f819050919050565b5f819050919050565b5f6103d06103cb6103c6846103a4565b6103ad565b6103a4565b9050919050565b5f819050919050565b6103e9836103b6565b6103fd6103f5826103d7565b848454610353565b825550505050565b5f5f905090565b610414610405565b61041f8184846103e0565b505050565b5b81811015610442576104375f8261040c565b600181019050610425565b5050565b601f8211156104875761045881610326565b61046184610338565b81016020851015610470578190505b61048461047c85610338565b830182610424565b50505b505050565b5f82821c905092915050565b5f6104a75f198460080261048c565b1980831691505092915050565b5f6104bf8383610498565b9150826002028217905092915050565b6104d882610292565b67ffffffffffffffff8111156104f1576104f061029c565b5b6104fb82546102f6565b610506828285610446565b5f60209050601f831160018114610537575f8415610525578287015190505b61052f85826104b4565b865550610596565b601f19841661054586610326565b5f5b8281101561056c57848901518255600182019150602085019450602081019050610547565b868310156105895784890151610585601f891682610498565b8355505b6001600288020188555050505b505050505050565b6105a78161022c565b82525050565b5f6020820190506105c05f83018461059e565b92915050565b611201806105d35f395ff3fe608060405234801561000f575f5ffd5b50600436106100e8575f3560e01c8063715018a61161008a578063a9059cbb11610064578063a9059cbb14610238578063b90306ad14610268578063dd62ed3e14610284578063f2fde38b146102b4576100e8565b8063715018a6146101f25780638da5cb5b146101fc57806395d89b411461021a576100e8565b806318160ddd116100c657806318160ddd1461015657806323b872dd14610174578063313ce567146101a457806370a08231146101c2576100e8565b806306fdde03146100ec578063078837031461010a578063095ea7b314610126575b5f5ffd5b6100f46102d0565b6040516101019190610e4f565b60405180910390f35b610124600480360381019061011f9190610ea6565b610360565b005b610140600480360381019061013b9190610f2b565b61036d565b60405161014d9190610f83565b60405180910390f35b61015e61038f565b60405161016b9190610fab565b60405180910390f35b61018e60048036038101906101899190610fc4565b610398565b60405161019b9190610f83565b60405180910390f35b6101ac6103c6565b6040516101b9919061102f565b60405180910390f35b6101dc60048036038101906101d79190611048565b6103ce565b6040516101e99190610fab565b60405180910390f35b6101fa610413565b005b610204610426565b6040516102119190611082565b60405180910390f35b61022261044e565b60405161022f9190610e4f565b60405180910390f35b610252600480360381019061024d9190610f2b565b6104de565b60405161025f9190610f83565b60405180910390f35b610282600480360381019061027d9190610ea6565b610500565b005b61029e6004803603810190610299919061109b565b61050d565b6040516102ab9190610fab565b60405180910390f35b6102ce60048036038101906102c99190611048565b61058f565b005b6060600380546102df90611106565b80601f016020809104026020016040519081016040528092919081815260200182805461030b90611106565b80156103565780601f1061032d57610100808354040283529160200191610356565b820191905f5260205f20905b81548152906001019060200180831161033957829003601f168201915b5050505050905090565b61036a3382610613565b50565b5f5f610377610692565b9050610384818585610699565b600191505092915050565b5f600254905090565b5f5f6103a2610692565b90506103af8582856106ab565b6103ba85858561073e565b60019150509392505050565b5f6012905090565b5f5f5f8373ffffffffffffffffffffffffffffffffffffffff1673ffffffffffffffffffffffffffffffffffffffff1681526020019081526020015f20549050919050565b61041b61082e565b6104245f6108b5565b565b5f60055f9054906101000a900473ffffffffffffffffffffffffffffffffffffffff16905090565b60606004805461045d90611106565b80601f016020809104026020016040519081016040528092919081815260200182805461048990611106565b80156104d45780601f106104ab576101008083540402835291602001916104d4565b820191905f5260205f20905b8154815290600101906020018083116104b757829003601f168201915b5050505050905090565b5f5f6104e8610692565b90506104f581858561073e565b600191505092915050565b61050a3382610978565b50565b5f60015f8473ffffffffffffffffffffffffffffffffffffffff1673ffffffffffffffffffffffffffffffffffffffff1681526020019081526020015f205f8373ffffffffffffffffffffffffffffffffffffffff1673ffffffffffffffffffffffffffffffffffffffff1681526020019081526020015f2054905092915050565b61059761082e565b5f73ffffffffffffffffffffffffffffffffffffffff168173ffffffffffffffffffffffffffffffffffffffff1603610607575f6040517f1e4fbdf70000000000000000000000000000000000000000000000000000000081526004016105fe9190611082565b60405180910390fd5b610610816108b5565b50565b5f73ffffffffffffffffffffffffffffffffffffffff168273ffffffffffffffffffffffffffffffffffffffff1603610683575f6040517fec442f0500000000000000000000000000000000000000000000000000000000815260040161067a9190611082565b60405180910390fd5b61068e5f83836109f7565b5050565b5f33905090565b6106a68383836001610c10565b505050565b5f6106b6848461050d565b90507fffffffffffffffffffffffffffffffffffffffffffffffffffffffffffffffff8110156107385781811015610729578281836040517ffb8f41b200000000000000000000000000000000000000000000000000000000815260040161072093929190611136565b60405180910390fd5b61073784848484035f610c10565b5b50505050565b5f73ffffffffffffffffffffffffffffffffffffffff168373ffffffffffffffffffffffffffffffffffffffff16036107ae575f6040517f96c6fd1e0000000000000000000000000000000000000000000000000000000081526004016107a59190611082565b60405180910390fd5b5f73ffffffffffffffffffffffffffffffffffffffff168273ffffffffffffffffffffffffffffffffffffffff160361081e575f6040517fec442f050000000000000000000000000000000000000000000000000000000081526004016108159190611082565b60405180910390fd5b6108298383836109f7565b505050565b610836610692565b73ffffffffffffffffffffffffffffffffffffffff16610854610426565b73ffffffffffffffffffffffffffffffffffffffff16146108b357610877610692565b6040517f118cdaa70000000000000000000000000000000000000000000000000000000081526004016108aa9190611082565b60405180910390fd5b565b5f60055f9054906101000a900473ffffffffffffffffffffffffffffffffffffffff1690508160055f6101000a81548173ffffffffffffffffffffffffffffffffffffffff021916908373ffffffffffffffffffffffffffffffffffffffff1602179055508173ffffffffffffffffffffffffffffffffffffffff168173ffffffffffffffffffffffffffffffffffffffff167f8be0079c531659141344cd1fd0a4f28419497f9722a3daafe3b4186f6b6457e060405160405180910390a35050565b5f73ffffffffffffffffffffffffffffffffffffffff168273ffffffffffffffffffffffffffffffffffffffff16036109e8575f6040517f96c6fd1e0000000000000000000000000000000000000000000000000000000081526004016109df9190611082565b60405180910390fd5b6109f3825f836109f7565b5050565b5f73ffffffffffffffffffffffffffffffffffffffff168373ffffffffffffffffffffffffffffffffffffffff1603610a47578060025f828254610a3b9190611198565b92505081905550610b15565b5f5f5f8573ffffffffffffffffffffffffffffffffffffffff1673ffffffffffffffffffffffffffffffffffffffff1681526020019081526020015f2054905081811015610ad0578381836040517fe450d38c000000000000000000000000000000000000000000000000000000008152600401610ac793929190611136565b60405180910390fd5b8181035f5f8673ffffffffffffffffffffffffffffffffffffffff1673ffffffffffffffffffffffffffffffffffffffff1681526020019081526020015f2081905550505b5f73ffffffffffffffffffffffffffffffffffffffff168273ffffffffffffffffffffffffffffffffffffffff1603610b5c578060025f8282540392505081905550610ba6565b805f5f8473ffffffffffffffffffffffffffffffffffffffff1673ffffffffffffffffffffffffffffffffffffffff1681526020019081526020015f205f82825401925050819055505b8173ffffffffffffffffffffffffffffffffffffffff168373ffffffffffffffffffffffffffffffffffffffff167fddf252ad1be2c89b69c2b068fc378daa952ba7f163c4a11628f55a4df523b3ef83604051610c039190610fab565b60405180910390a3505050565b5f73ffffffffffffffffffffffffffffffffffffffff168473ffffffffffffffffffffffffffffffffffffffff1603610c80575f6040517fe602df05000000000000000000000000000000000000000000000000000000008152600401610c779190611082565b60405180910390fd5b5f73ffffffffffffffffffffffffffffffffffffffff168373ffffffffffffffffffffffffffffffffffffffff1603610cf0575f6040517f94280d62000000000000000000000000000000000000000000000000000000008152600401610ce79190611082565b60405180910390fd5b8160015f8673ffffffffffffffffffffffffffffffffffffffff1673ffffffffffffffffffffffffffffffffffffffff1681526020019081526020015f205f8573ffffffffffffffffffffffffffffffffffffffff1673ffffffffffffffffffffffffffffffffffffffff1681526020019081526020015f20819055508015610dd9578273ffffffffffffffffffffffffffffffffffffffff168473ffffffffffffffffffffffffffffffffffffffff167f8c5be1e5ebec7d5bd14f71427d1e84f3dd0314c0f7b2291e5b200ac8c7c3b92584604051610dd09190610fab565b60405180910390a35b50505050565b5f81519050919050565b5f82825260208201905092915050565b8281835e5f83830152505050565b5f601f19601f8301169050919050565b5f610e2182610ddf565b610e2b8185610de9565b9350610e3b818560208601610df9565b610e4481610e07565b840191505092915050565b5f6020820190508181035f830152610e678184610e17565b905092915050565b5f5ffd5b5f819050919050565b610e8581610e73565b8114610e8f575f5ffd5b50565b5f81359050610ea081610e7c565b92915050565b5f60208284031215610ebb57610eba610e6f565b5b5f610ec884828501610e92565b91505092915050565b5f73ffffffffffffffffffffffffffffffffffffffff82169050919050565b5f610efa82610ed1565b9050919050565b610f0a81610ef0565b8114610f14575f5ffd5b50565b5f81359050610f2581610f01565b92915050565b5f5f60408385031215610f4157610f40610e6f565b5b5f610f4e85828601610f17565b9250506020610f5f85828601610e92565b9150509250929050565b5f8115159050919050565b610f7d81610f69565b82525050565b5f602082019050610f965f830184610f74565b92915050565b610fa581610e73565b82525050565b5f602082019050610fbe5f830184610f9c565b92915050565b5f5f5f60608486031215610fdb57610fda610e6f565b5b5f610fe886828701610f17565b9350506020610ff986828701610f17565b925050604061100a86828701610e92565b9150509250925092565b5f60ff82169050919050565b61102981611014565b82525050565b5f6020820190506110425f830184611020565b92915050565b5f6020828403121561105d5761105c610e6f565b5b5f61106a84828501610f17565b91505092915050565b61107c81610ef0565b82525050565b5f6020820190506110955f830184611073565b92915050565b5f5f604083850312156110b1576110b0610e6f565b5b5f6110be85828601610f17565b92505060206110cf85828601610f17565b9150509250929050565b7f4e487b71000000000000000000000000000000000000000000000000000000005f52602260045260245ffd5b5f600282049050600182168061111d57607f821691505b6020821081036111305761112f6110d9565b5b50919050565b5f6060820190506111495f830186611073565b6111566020830185610f9c565b6111636040830184610f9c565b949350505050565b7f4e487b71000000000000000000000000000000000000000000000000000000005f52601160045260245ffd5b5f6111a282610e73565b91506111ad83610e73565b92508282019050808211156111c5576111c461116b565b5b9291505056fea264697066735822122000d856f70b9a2f0fecb5223c2b1b19a530aafb51a450bc9aed559e38fef0077464736f6c634300081c0033","linkReferences":{}},"methodIdentifiers":{"Burn(uint256)":"b90306ad","Mint(uint256)":"07883703","allowance(address,address)":"dd62ed3e","approve(address,uint256)":"095ea7b3","balanceOf(address)":"70a08231","decimals()":"313ce567","name()":"06fdde03","owner()":"8da5cb5b","renounceOwnership()":"715018a6","symbol()":"95d89b41","totalSupply()":"18160ddd","transfer(address,uint256)":"a9059cbb","transferFrom(address,address,uint256)":"23b872dd","transferOwnership(address)":"f2fde38b"},"id":13}